:02000000F92BDA
:100624008B01831285018B178B15080020308316EC
:10063400900083128501FF30831685009F01831289
:100644009F018B01990183168113151695160511C7
:100654008B178B150B1016169616080018236300BB
:1006640000000B148312AA01AB0115302B020318EE
:100674005E2B051E3F2B851A4B2B0130A800280842
:10068400AA070A302A02031C502B60238312AA01F2
:10069400502BAA010130A8002808AB071A30A90082
:1006A400F830A800A80B542BA90B542B00001530CC
:1006B40083122B02031C3B2B1223312B0030831299
:1006C400A5000030A4000030A3000030A200051AE9
:1006D400732B0130A5006030A4001430A300D03087
:1006E4007C2B851A08000130A5006030A40014306A
:1006F400A300C430A2000511F930A0000000A00B33
:10070400802B842B0000831205156330A000A00BFE
:10071400892B8C2B831205110D30A1001230A000FF
:10072400A00B922BA10B922B00008312051AF62B1F
:1007340083122508AF002408AE002308AD00220868
:10074400AC00A601A701D52B05156330A000A00BB2
:10075400A92BAC2B83120511E030A0000000A00BE4
:10076400B02BB42B0000C52B0515E030A000000011
:10077400A00BB92BBD2B0000831205116330A00020
:10078400A00BC22BC52B01308312A0000310AC0DAB
:10079400AD0DAE0DAF0DA00BC82B0130A60703188D
:1007A400A70A0030A7072708803ADF0080305F02DD
:1007B400031DDE2B193026020318EB2B83122F089E
:1007C4000139003A0319A62B013A0319B62BC52B9C
:1007D400C52B0B308312A100E730A000A00BF02B37
:1007E400A10BF02BF52B972B851A08009A2BAC0143
:0A07F400AD01AE01AF018301302B0F
:08400000FF3FFF3FFF3FFF3FC0
:02400E009431EB
:00000001FF
